{
  "_format": "hh-sol-artifact-1",
  "contractName": "UserIdentity",
  "sourceName": "contracts/Contract.sol",
  "abi": [
    {
      "anonymous": false,
      "inputs": [
        {
          "indexed": true,
          "internalType": "address",
          "name": "userAddress",
          "type": "address"
        },
        {
          "indexed": false,
          "internalType": "string",
          "name": "username",
          "type": "string"
        }
      ],
      "name": "UserRegistered",
      "type": "event"
    },
    {
      "inputs": [
        {
          "internalType": "address",
          "name": "_user",
          "type": "address"
        }
      ],
      "name": "isRegistered",
      "outputs": [
        {
          "internalType": "bool",
          "name": "",
          "type": "bool"
        }
      ],
      "stateMutability": "view",
      "type": "function"
    },
    {
      "inputs": [
        {
          "internalType": "string",
          "name": "_username",
          "type": "string"
        }
      ],
      "name": "registerUser",
      "outputs": [],
      "stateMutability": "nonpayable",
      "type": "function"
    },
    {
      "inputs": [
        {
          "internalType": "address",
          "name": "",
          "type": "address"
        }
      ],
      "name": "users",
      "outputs": [
        {
          "internalType": "string",
          "name": "username",
          "type": "string"
        },
        {
          "internalType": "bool",
          "name": "registered",
          "type": "bool"
        }
      ],
      "stateMutability": "view",
      "type": "function"
    }
  ],
  "bytecode": "0x608060405234801561001057600080fd5b5061054b806100206000396000f3fe608060405234801561001057600080fd5b50600436106100415760003560e01c8063704f1b9414610046578063a87430ba1461005b578063c3c5a54714610085575b600080fd5b61005961005436600461028c565b6100c4565b005b61006e6100693660046102fe565b6101e5565b60405161007c92919061032e565b60405180910390f35b6100b46100933660046102fe565b6001600160a01b031660009081526020819052604090206001015460ff1690565b604051901515815260200161007c565b3360009081526020819052604090206001015460ff161561012b5760405162461bcd60e51b815260206004820152601760248201527f5573657220616c72656164792072656769737465726564000000000000000000604482015260640160405180910390fd5b6040805160606020601f85018190040282018101835291810183815290918291908590859081908501838280828437600092018290525093855250506001602093840152503381529081905260409020815181906101899082610426565b50602091909101516001909101805460ff191691151591909117905560405133907f48cac28ad4dc618e15f4c2dd5e97751182f166de97b25618318b2112aa951a2f906101d990859085906104e6565b60405180910390a25050565b6000602081905290815260409020805481906102009061039b565b80601f016020809104026020016040519081016040528092919081815260200182805461022c9061039b565b80156102795780601f1061024e57610100808354040283529160200191610279565b820191906000526020600020905b81548152906001019060200180831161025c57829003601f168201915b5050506001909301549192505060ff1682565b6000806020838503121561029f57600080fd5b823567ffffffffffffffff808211156102b757600080fd5b818501915085601f8301126102cb57600080fd5b8135818111156102da57600080fd5b8660208285010111156102ec57600080fd5b60209290920196919550909350505050565b60006020828403121561031057600080fd5b81356001600160a01b038116811461032757600080fd5b9392505050565b604081526000835180604084015260005b8181101561035c576020818701810151606086840101520161033f565b506000606082850101526060601f19601f83011684010191505082151560208301529392505050565b634e487b7160e01b600052604160045260246000fd5b600181811c908216806103af57607f821691505b6020821081036103cf57634e487b7160e01b600052602260045260246000fd5b50919050565b601f821115610421576000816000526020600020601f850160051c810160208610156103fe5750805b601f850160051c820191505b8181101561041d5782815560010161040a565b5050505b505050565b815167ffffffffffffffff81111561044057610440610385565b6104548161044e845461039b565b846103d5565b602080601f83116001811461048957600084156104715750858301515b600019600386901b1c1916600185901b17855561041d565b600085815260208120601f198616915b828110156104b857888601518255948401946001909101908401610499565b50858210156104d65787850151600019600388901b60f8161c191681555b5050505050600190811b01905550565b60208152816020820152818360408301376000818301604090810191909152601f909201601f1916010191905056fea2646970667358221220fcf0b97103e9c528f6b0bc5147e73a71cc9a08c515f826d65d15baf0d606ca3064736f6c63430008170033",
  "linkReferences": {},
  "deployedLinkReferences": {}
}